:100000000C9462000C948A000C948A000C948A0070
:100010000C948A000C948A000C948A000C948A0038
:100020000C948A000C948A000C948A000C948A0028
:100030000C948A000C948A000C948A000C948A0018
:100040000C9483020C948A000C94F3020C94CD025D
:100050000C948A000C948A000C948A000C948A00F8
:100060000C948A000C948A000000000024002700F1
:100070002A000000000023002600290000000000E4
:10008000250028002B0004040404040404040202D4
:100090000202020203030303030301020408102007
:1000A0004080010204081020010204081020000012
:1000B0000008000201000003040700000000000027
:1000C0000000DC0411241FBECFEFD8E0DEBFCDBF9F
:1000D00011E0A0E0B1E0ECEDFCE002C005900D9273
:1000E000A832B107D9F721E0A8E2B1E001C01D9222
:1000F000AE3CB207E1F710E0C2E6D0E004C02197C1
:10010000FE010E946106C136D107C9F70E946A0349
:100110000C946C060C94000090E0FC01E255FF4F3B
:100120003491FC01E656FF4F2491FC01EA57FF4F42
:10013000E491EE2309F43BC0332339F1333091F0DD
:1001400038F43130A9F0323001F584B58F7D12C01A
:10015000373091F03830A1F03430B9F4809180001C
:100160008F7D03C0809180008F77809380000DC0C9
:1001700084B58F7784BD09C08091B0008F7703C0AC
:100180008091B0008F7D8093B000F0E0EE0FFF1FF4
:10019000E458FF4FA591B4918FB7F894EC91611199
:1001A00003C020952E2301C02E2B2C938FBF0895C2
:1001B0003FB7F89480912D0190912E01A0912F01CD
:1001C000B091300126B5A89B05C02F3F19F00196CC
:1001D000A11DB11D3FBFBA2FA92F982F8827820FCD
:1001E000911DA11DB11DBC01CD0142E0660F771F1D
:1001F000881F991F4A95D1F70895CF92DF92EF9209
:10020000FF920F931F93CF93DF936C017A018B01C1
:10021000C0E0D0E0CE15DF0589F0D8016D918D01E9
:10022000D601ED91FC910190F081E02DC601099578
:10023000892B11F47E0102C02196ECCFC701DF911A
:10024000CF911F910F91FF90EF90DF90CF90089585
:10025000089580E090E00895FC01538D448D252F92
:1002600030E0842F90E0821B930B541710F0CF9650
:10027000089501970895FC01918D828D981761F082
:10028000828DDF01A80FB11D5D968C91928D9F5FCD
:100290009F73928F90E008958FEF9FEF0895FC0178
:1002A000918D828D981731F0828DE80FF11D858D2B
:1002B00090E008958FEF9FEF0895FC01918D228DBE
:1002C000892F90E0805C9F4F821B91098F73992743
:1002D000089581E391E00E945D0121E0892B09F4FA
:1002E00020E0822F0895FC01848DDF01A80FB11D4D
:1002F000A35ABF4F2C91848D90E001968F7399275C
:10030000848FA689B7892C93A089B1898C91806448
:100310008C93938D848D981306C00288F389E02D09
:1003200080818F7D80830895EF92FF920F931F93BA
:10033000CF93DF93EC0181E0888F9B8D8C8D981398
:1003400005C0E889F989808185FD24C0F62E0B8DD2
:1003500010E00F5F1F4F0F731127E02E8C8DE812F6
:100360000CC00FB607FCFACFE889F989808185FFB8
:10037000F5CFCE010E947301F1CF8B8DFE01E80F06
:10038000F11DE35AFF4FF0820B8FEA89FB898081D0
:10039000806207C0EE89FF896083E889F9898081DE
:1003A0008064808381E090E0DF91CF911F910F9175
:1003B000FF90EF900895CF93DF93EC01888D882311
:1003C000C9F0EA89FB89808185FD05C0A889B989C2
:1003D0008C9186FD0FC00FB607FCF5CF808185FF9D
:1003E000F2CFA889B9898C9185FFEDCFCE010E940B
:1003F0007301E7CFDF91CF91089580E090E0892BE2
:1004000029F00E94690181110C9400000895009761
:1004100069F0FC0101900020E9F73197AF01481B1A
:10042000590BBC0181E391E00C94FD0080E090E069
:1004300008958F929F92AF92BF920F931F93CF9385
:10044000DF93CDB7DEB7A1970FB6F894DEBF0FBE2E
:10045000CDBF19A2423008F44AE08E010F5D1F4F54
:10046000842E912CA12CB12CA50194010E943F0651
:10047000E62FB901CA0101501109EA3014F4E05D18
:1004800001C0E95CD801EC93232B242B252B61F7C9
:10049000C8010E940702A1960FB6F894DEBF0FBEF6
:1004A000CDBFDF91CF911F910F91BF90AF909F90E3
:1004B0008F900895CF92DF92EF92FF92CF93DF93C8
:1004C0006B017C01E0913101F09132010190F081EA
:1004D000E02D6DE281E391E00995EC016627772735
:1004E000CB016C197D098E099F094AE00E9419020F
:1004F0008C0F9D1FDF91CF91FF90EF90DF90CF90F9
:1005000008950E9467061F920F920FB60F92112452
:100510002F933F938F939F93AF93BF938091290124
:1005200090912A01A0912B01B0912C0130912801CA
:1005300023E0230F2D3720F40196A11DB11D05C026
:1005400026E8230F0296A11DB11D20932801809358
:10055000290190932A01A0932B01B0932C01809143
:100560002D0190912E01A0912F01B09130010196A3
:10057000A11DB11D80932D0190932E01A0932F01F9
:10058000B0933001BF91AF919F918F913F912F9187
:100590000F900FBE0F901F9018951F920F920FB6DD
:1005A0000F9211242F933F934F935F936F937F93F9
:1005B0008F939F93AF93BF93EF93FF9381E391E06A
:1005C0000E947301FF91EF91BF91AF919F918F9125
:1005D0007F916F915F914F913F912F910F900FBE3F
:1005E0000F901F9018951F920F920FB60F92112423
:1005F0002F938F939F93EF93FF93E0914101F0919D
:1006000042018081E0914701F091480182FD12C0D2
:10061000908180914A018F5F8F7320914B018217E7
:1006200051F0E0914A01F0E0EF5CFE4F958F80932E
:100630004A0101C08081FF91EF919F918F912F918D
:100640000F900FBE0F901F901895CF92DF92EF92F0
:10065000FF920F931F93E82FF92F05C00150110946
:100660002109310961F1908196239417B9F305C0EE
:10067000015011092109310911F190819623941338
:10068000F7CFC12CD12CE12CF12C0AC08FEFC81A66
:10069000D80AE80AF80A0C151D052E053F0579F061
:1006A00080818623841791F36C2D7D2D8E2D9F2DB7
:1006B0001F910F91FF90EF90DF90CF90089560E031
:1006C00070E080E090E01F910F91FF90EF90DF903D
:1006D000CF900895789484B5826084BD84B581609C
:1006E00084BD85B5826085BD85B5816085BD8091FD
:1006F0006E00816080936E00109281008091810075
:10070000826080938100809181008160809381006C
:10071000809180008160809380008091B10084602E
:100720008093B1008091B00081608093B00080918F
:100730007A00846080937A0080917A00826080934E
:100740007A0080917A00816080937A0080917A00AB
:10075000806880937A001092C100E0914101F0918D
:10076000420182E08083E0913D01F0913E011082E0
:10077000E0913F01F09140018FEC8083109249019C
:10078000E0914501F091460186E08083E0914301CC
:10079000F0914401808180618083E0914301F09178
:1007A0004401808188608083E0914301F09144019D
:1007B000808180688083E0914301F09144018081D1
:1007C0008F7D8083C2E1D1E0AAE1B1E08C911496E3
:1007D00090E0FC01E656FF4F2491FC01EA57FF4FE1
:1007E00084918823A1F090E0880F991FFC01E859BB
:1007F000FF4F45915491FC01E458FF4F859194912E
:100800008FB7F894FA019081922B90838FBF8881E3
:10081000249690E0FC01E656FF4F2491FC01EA5734
:10082000FF4F84918823C9F090E0880F991FFC0145
:10083000E859FF4F45915491FC01E458FF4F6591F1
:1008400074919FB7F894FA01808120958223808368
:10085000FB018081822380839FBFF1E0A232BF072A
:1008600009F0B4CF63E0262E312CC2E1D1E05AE189
:10087000E52E51E0F52E412C512C3201F70110816B
:10088000F4E0EF0EF11C60E0812F0E948C00C101AA
:100890000197F1F761E0812F0E948C0083E290E0E4
:1008A0000197F1F760E0812F0E948C0088812496E7
:1008B00090E0FC01E656FF4F6491FC01EA57FF4FC0
:1008C000E491F0E0EE0FFF1FEE58FF4F85919491F9
:1008D00000E412E42FE030E0462F0E94250361156A
:1008E00071058105910539F0DC01CB010196A11D4F
:1008F000B11DBF7003C080E090E0DC01BC01CD0100
:1009000095958795779567950E94B3052DEC3CECFE
:1009100048EE51E40E9409050E947B054B015C01F1
:100920004AE0C301B2010E94190282E291E00E94F2
:100930000702B7FE05C0C501B4010E945A0205C0F6
:100940004AE0C501B4010E94190285E291E00E94CB
:1009500007024A9445284628472829F0412C512C63
:10096000320143948BCF0E94D8006B017C018AE056
:10097000482E512C612C712C0E94D800DC01CB0137
:100980008C199D09AE09BF09883E9340A105B105A8
:1009900058F081E0481A510861087108E8EECE0E5F
:1009A000E3E0DE1EE11CF11C4114510461047104FA
:1009B00019F70E94FD0159CFE1E3F1E013821282A1
:1009C00088EE93E0A0E0B0E084839583A683B783AC
:1009D00084E091E09183808385EC90E09587848723
:1009E00084EC90E09787868780EC90E0918B808BF9
:1009F00081EC90E0938B828B82EC90E0958B848BE2
:100A000086EC90E0978B868B118E128E138E148E4F
:100A100008950E941D050C9405060E94FE0558F0DD
:100A20000E94F70540F029F45F3F29F00C94EE0591
:100A300051110C9439060C94F4050E94160668F3C3
:100A40009923B1F3552391F3951B550BBB27AA2787
:100A500062177307840738F09F5F5F4F220F331FC1
:100A6000441FAA1FA9F335D00E2E3AF0E0E832D089
:100A700091505040E695001CCAF72BD0FE2F29D08C
:100A8000660F771F881FBB1F261737074807AB075E
:100A9000B0E809F0BB0B802DBF01FF2793585F4FD3
:100AA0003AF09E3F510578F00C94EE050C9439060F
:100AB0005F3FE4F3983ED4F3869577956795B795B5
:100AC000F7959F5FC9F7880F911D9695879597F9C0
:100AD0000895E1E0660F771F881FBB1F6217730739
:100AE0008407BA0720F0621B730B840BBA0BEE1F4E
:100AF00088F7E09508950E9482056894B1110C94DE
:100B0000390608950E941E0688F09F5798F0B92F65
:100B10009927B751B0F0E1F0660F771F881F991F32
:100B20001AF0BA95C9F714C0B13091F00E94380696
:100B3000B1E008950C943806672F782F8827B85FA6
:100B400039F0B93FCCF3869577956795B395D9F78A
:100B50003EF490958095709561957F4F8F4F9F4F94
:100B60000895E89409C097FB3EF4909580957095A0
:100B700061957F4F8F4F9F4F9923A9F0F92F96E9E9
:100B8000BB279395F695879577956795B795F1115E
:100B9000F8CFFAF4BB0F11F460FF1BC06F5F7F4FFB
:100BA0008F4F9F4F16C0882311F096E911C077230D
:100BB00021F09EE8872F762F05C0662371F096E816
:100BC000862F70E060E02AF09A95660F771F881FE5
:100BD000DAF7880F9695879597F9089597F99F67A3
:100BE00080E870E060E008959FEF80EC08950024B5
:100BF0000A941616170618060906089500240A9482
:100C000012161306140605060895092E0394000C07
:100C100011F4882352F0BB0F40F4BF2B11F460FF96
:100C200004C06F5F7F4F8F4F9F4F089557FD9058BF
:100C3000440F551F59F05F3F71F04795880F97FBA0
:100C4000991F61F09F3F79F087950895121613065A
:100C50001406551FF2CF4695F1DF08C01616170689
:100C60001806991FF1CF86957105610508940895BE
:100C7000E894BB2766277727CB0197F90895A1E26F
:100C80001A2EAA1BBB1BFD010DC0AA1FBB1FEE1F06
:100C9000FF1FA217B307E407F50720F0A21BB30B51
:100CA000E40BF50B661F771F881F991F1A9469F7CD
:100CB00060957095809590959B01AC01BD01CF0129
:100CC0000895EE0FFF1F0590F491E02D099481E047
:0C0CD00090E0F8940C946C06F894FFCFB0
:100CDC00000000009401FD002C01DB015D013B01D3
:100CEC004F010A0000000C0000000B0000000D007A
:080CFC0000003A20000D0A007F
:00000001FF
